{
  "contractName": "FreelanceMarketplace",
  "abi": [
    {
      "constant": true,
      "inputs": [],
      "name": "jobCount",
      "outputs": [
        {
          "internalType": "uint256",
          "name": "",
          "type": "uint256"
        }
      ],
      "payable": false,
      "stateMutability": "view",
      "type": "function"
    },
    {
      "constant": true,
      "inputs": [
        {
          "internalType": "uint256",
          "name": "",
          "type": "uint256"
        }
      ],
      "name": "jobs",
      "outputs": [
        {
          "internalType": "uint256",
          "name": "id",
          "type": "uint256"
        },
        {
          "internalType": "string",
          "name": "title",
          "type": "string"
        },
        {
          "internalType": "string",
          "name": "description",
          "type": "string"
        },
        {
          "internalType": "address",
          "name": "client",
          "type": "address"
        },
        {
          "internalType": "address",
          "name": "freelancer",
          "type": "address"
        },
        {
          "internalType": "uint256",
          "name": "payment",
          "type": "uint256"
        }
      ],
      "payable": false,
      "stateMutability": "view",
      "type": "function"
    },
    {
      "constant": false,
      "inputs": [
        {
          "internalType": "string",
          "name": "_title",
          "type": "string"
        },
        {
          "internalType": "string",
          "name": "_description",
          "type": "string"
        }
      ],
      "name": "createJob",
      "outputs": [],
      "payable": true,
      "stateMutability": "payable",
      "type": "function"
    },
    {
      "constant": false,
      "inputs": [
        {
          "internalType": "uint256",
          "name": "_jobId",
          "type": "uint256"
        }
      ],
      "name": "applyForJob",
      "outputs": [],
      "payable": false,
      "stateMutability": "nonpayable",
      "type": "function"
    }
  ],
  "bytecode": "0x6080604052600060015534801561001557600080fd5b5061094f806100256000396000f3fe60806040526004361061003f5760003560e01c8063180aedf3146100445780632b1ed581146101d85780634c5d8a0f1461032a578063e0c94ae514610355575b600080fd5b34801561005057600080fd5b5061007d6004803603602081101561006757600080fd5b8101908080359060200190929190505050610390565b6040518087815260200180602001806020018673ffffffffffffffffffffffffffffffffffffffff1673ffffffffffffffffffffffffffffffffffffffff1681526020018573ffffffffffffffffffffffffffffffffffffffff1673ffffffffffffffffffffffffffffffffffffffff168152602001848152602001838103835288818151815260200191508051906020019080838360005b83811015610131578082015181840152602081019050610116565b50505050905090810190601f16801561015e5780820380516001836020036101000a031916815260200191505b50838103825287818151815260200191508051906020019080838360005b8381101561019757808201518184015260208101905061017c565b50505050905090810190601f1680156101c45780820380516001836020036101000a031916815260200191505b509850505050505050505060405180910390f35b610328600480360360408110156101ee57600080fd5b810190808035906020019064010000000081111561020b57600080fd5b82018360208201111561021d57600080fd5b8035906020019184600183028401116401000000008311171561023f57600080fd5b91908080601f016020809104026020016040519081016040528093929190818152602001838380828437600081840152601f19601f820116905080830192505050505050509192919290803590602001906401000000008111156102a257600080fd5b8201836020820111156102b457600080fd5b803590602001918460018302840111640100000000831117156102d657600080fd5b91908080601f016020809104026020016040519081016040528093929190818152602001838380828437600081840152601f19601f820116905080830192505050505050509192919290505050610549565b005b34801561033657600080fd5b5061033f610720565b6040518082815260200191505060405180910390f35b34801561036157600080fd5b5061038e6004803603602081101561037857600080fd5b8101908080359060200190929190505050610726565b005b6000818154811061039d57fe5b9060005260206000209060060201600091509050806000015490806001018054600181600116156101000203166002900480601f01602080910402602001604051908101604052809291908181526020018280546001816001161561010002031660029004801561044f5780601f106104245761010080835404028352916020019161044f565b820191906000526020600020905b81548152906001019060200180831161043257829003601f168201915b505050505090806002018054600181600116156101000203166002900480601f0160208091040260200160405190810160405280929190818152602001828054600181600116156101000203166002900480156104ed5780601f106104c2576101008083540402835291602001916104ed565b820191906000526020600020905b8154815290600101906020018083116104d057829003601f168201915b5050505050908060030160009054906101000a900473ffffffffffffffffffffffffffffffffffffffff16908060040160009054906101000a900473ffffffffffffffffffffffffffffffffffffffff16908060050154905086565b600034116105a2576040517f08c379a00000000000000000000000000000000000000000000000000000000081526004018080602001828103825260218152602001806108fa6021913960400191505060405180910390fd5b60016000815480929190600101919050555060006040518060c0016040528060015481526020018481526020018381526020013373ffffffffffffffffffffffffffffffffffffffff168152602001600073ffffffffffffffffffffffffffffffffffffffff1681526020013481525090806001815401808255809150509060018203906000526020600020906006020160009091929091909150600082015181600001556020820151816001019080519060200190610663929190610854565b506040820151816002019080519060200190610680929190610854565b5060608201518160030160006101000a81548173ffffffffffffffffffffffffffffffffffffffff021916908373ffffffffffffffffffffffffffffffffffffffff16021790555060808201518160040160006101000a81548173ffffffffffffffffffffffffffffffffffffffff021916908373ffffffffffffffffffffffffffffffffffffffff16021790555060a082015181600501555050505050565b60015481565b600080600183038154811061073757fe5b90600052602060002090600602019050600073ffffffffffffffffffffffffffffffffffffffff168160040160009054906101000a900473ffffffffffffffffffffffffffffffffffffffff1673ffffffffffffffffffffffffffffffffffffffff161461080d576040517f08c379a00000000000000000000000000000000000000000000000000000000081526004018080602001828103825260118152602001807f4a6f6220616c72656164792074616b656e00000000000000000000000000000081525060200191505060405180910390fd5b338160040160006101000a81548173ffffffffffffffffffffffffffffffffffffffff021916908373ffffffffffffffffffffffffffffffffffffffff1602179055505050565b828054600181600116156101000203166002900490600052602060002090601f016020900481019282601f1061089557805160ff19168380011785556108c3565b828001600101855582156108c3579182015b828111156108c25782518255916020019190600101906108a7565b5b5090506108d091906108d4565b5090565b6108f691905b808211156108f25760008160009055506001016108da565b5090565b9056fe5061796d656e74206d7573742062652067726561746572207468616e207a65726fa265627a7a7231582090fa85878c6ff3a6424bd9750784ec11ba1e058cc6b47e82f0c2cef400697ea064736f6c63430005100032",
  "source": "// SPDX-License-Identifier: MIT\r\npragma solidity ^0.5.16;\r\n\r\ncontract FreelanceMarketplace {\r\n    struct Job {\r\n        uint id;\r\n        string title;\r\n        string description;\r\n        address client;\r\n        address freelancer;\r\n        uint payment;\r\n    }\r\n\r\n    Job[] public jobs;\r\n    uint public jobCount = 0;\r\n\r\n    // Create a new job with payment in Ether\r\n    function createJob(string memory _title, string memory _description) public payable {\r\n        require(msg.value > 0, \"Payment must be greater than zero\");\r\n\r\n        jobCount++;\r\n        jobs.push(Job(jobCount, _title, _description, msg.sender, address(0), msg.value));\r\n    }\r\n\r\n    // Apply for a job by a freelancer\r\n    function applyForJob(uint _jobId) public {\r\n        Job storage job = jobs[_jobId - 1];\r\n        require(job.freelancer == address(0), \"Job already taken\");\r\n        job.freelancer = msg.sender;\r\n    }\r\n}\r\n",
  "sourcePath": "C:\\Users\\Asad Javed\\freelance-marketplace\\contracts\\FreelanceMarketplace.sol",
  "compiler": {
    "name": "solc",
    "version": "0.5.16+commit.9c3226ce.Emscripten.clang"
  },
  "schemaVersion": "3.4.16",
  "updatedAt": "2024-10-01T13:58:49.990Z",
  "devdoc": {
    "methods": {}
  },
  "userdoc": {
    "methods": {}
  }
}